{
  "contractName": "ProductContract",
  "abi": [
    {
      "inputs": [],
      "stateMutability": "nonpayable",
      "type": "constructor"
    },
    {
      "inputs": [],
      "name": "admin",
      "outputs": [
        {
          "internalType": "address",
          "name": "",
          "type": "address"
        }
      ],
      "stateMutability": "view",
      "type": "function",
      "constant": true
    },
    {
      "inputs": [],
      "name": "productCount",
      "outputs": [
        {
          "internalType": "uint256",
          "name": "",
          "type": "uint256"
        }
      ],
      "stateMutability": "view",
      "type": "function",
      "constant": true
    },
    {
      "inputs": [
        {
          "internalType": "uint256",
          "name": "",
          "type": "uint256"
        },
        {
          "internalType": "uint256",
          "name": "",
          "type": "uint256"
        }
      ],
      "name": "productReviews",
      "outputs": [
        {
          "internalType": "address",
          "name": "reviewer",
          "type": "address"
        },
        {
          "internalType": "uint8",
          "name": "rating",
          "type": "uint8"
        },
        {
          "internalType": "string",
          "name": "comment",
          "type": "string"
        }
      ],
      "stateMutability": "view",
      "type": "function",
      "constant": true
    },
    {
      "inputs": [
        {
          "internalType": "uint256",
          "name": "",
          "type": "uint256"
        }
      ],
      "name": "products",
      "outputs": [
        {
          "internalType": "string",
          "name": "name",
          "type": "string"
        },
        {
          "internalType": "string",
          "name": "description",
          "type": "string"
        },
        {
          "internalType": "string",
          "name": "origin",
          "type": "string"
        },
        {
          "internalType": "string",
          "name": "productionDate",
          "type": "string"
        },
        {
          "internalType": "string",
          "name": "farmingPractices",
          "type": "string"
        }
      ],
      "stateMutability": "view",
      "type": "function",
      "constant": true
    },
    {
      "inputs": [
        {
          "internalType": "string",
          "name": "_name",
          "type": "string"
        },
        {
          "internalType": "string",
          "name": "_description",
          "type": "string"
        },
        {
          "internalType": "string",
          "name": "_origin",
          "type": "string"
        },
        {
          "internalType": "string",
          "name": "_productionDate",
          "type": "string"
        },
        {
          "internalType": "string",
          "name": "_farmingPractices",
          "type": "string"
        }
      ],
      "name": "addProduct",
      "outputs": [],
      "stateMutability": "nonpayable",
      "type": "function"
    },
    {
      "inputs": [
        {
          "internalType": "uint256",
          "name": "_id",
          "type": "uint256"
        },
        {
          "internalType": "string",
          "name": "_name",
          "type": "string"
        },
        {
          "internalType": "string",
          "name": "_description",
          "type": "string"
        },
        {
          "internalType": "string",
          "name": "_origin",
          "type": "string"
        },
        {
          "internalType": "string",
          "name": "_productionDate",
          "type": "string"
        },
        {
          "internalType": "string",
          "name": "_farmingPractices",
          "type": "string"
        }
      ],
      "name": "updateProduct",
      "outputs": [],
      "stateMutability": "nonpayable",
      "type": "function"
    },
    {
      "inputs": [
        {
          "internalType": "uint256",
          "name": "_id",
          "type": "uint256"
        }
      ],
      "name": "deleteProduct",
      "outputs": [],
      "stateMutability": "nonpayable",
      "type": "function"
    },
    {
      "inputs": [
        {
          "internalType": "uint256",
          "name": "_id",
          "type": "uint256"
        }
      ],
      "name": "getProduct",
      "outputs": [
        {
          "components": [
            {
              "internalType": "string",
              "name": "name",
              "type": "string"
            },
            {
              "internalType": "string",
              "name": "description",
              "type": "string"
            },
            {
              "internalType": "string",
              "name": "origin",
              "type": "string"
            },
            {
              "internalType": "string",
              "name": "productionDate",
              "type": "string"
            },
            {
              "internalType": "string",
              "name": "farmingPractices",
              "type": "string"
            }
          ],
          "internalType": "struct ProductContract.Product",
          "name": "",
          "type": "tuple"
        }
      ],
      "stateMutability": "view",
      "type": "function",
      "constant": true
    },
    {
      "inputs": [],
      "name": "getProducts",
      "outputs": [
        {
          "components": [
            {
              "internalType": "string",
              "name": "name",
              "type": "string"
            },
            {
              "internalType": "string",
              "name": "description",
              "type": "string"
            },
            {
              "internalType": "string",
              "name": "origin",
              "type": "string"
            },
            {
              "internalType": "string",
              "name": "productionDate",
              "type": "string"
            },
            {
              "internalType": "string",
              "name": "farmingPractices",
              "type": "string"
            }
          ],
          "internalType": "struct ProductContract.Product[]",
          "name": "",
          "type": "tuple[]"
        }
      ],
      "stateMutability": "view",
      "type": "function",
      "constant": true
    },
    {
      "inputs": [
        {
          "internalType": "uint256",
          "name": "_productId",
          "type": "uint256"
        },
        {
          "internalType": "uint8",
          "name": "_rating",
          "type": "uint8"
        },
        {
          "internalType": "string",
          "name": "_comment",
          "type": "string"
        }
      ],
      "name": "addReview",
      "outputs": [],
      "stateMutability": "nonpayable",
      "type": "function"
    },
    {
      "inputs": [
        {
          "internalType": "uint256",
          "name": "_productId",
          "type": "uint256"
        }
      ],
      "name": "getReviews",
      "outputs": [
        {
          "components": [
            {
              "internalType": "address",
              "name": "reviewer",
              "type": "address"
            },
            {
              "internalType": "uint8",
              "name": "rating",
              "type": "uint8"
            },
            {
              "internalType": "string",
              "name": "comment",
              "type": "string"
            }
          ],
          "internalType": "struct ProductContract.Review[]",
          "name": "",
          "type": "tuple[]"
        }
      ],
      "stateMutability": "view",
      "type": "function",
      "constant": true
    }
  ],
  "bytecode": "0x608060405234801561001057600080fd5b5033600360006101000a81548173ffffffffffffffffffffffffffffffffffffffff021916908373ffffffffffffffffffffffffffffffffffffffff160217905550612150806100616000396000f3fe608060405234801561001057600080fd5b50600436106100a95760003560e01c8063da6ca58c11610071578063da6ca58c1461017c578063e0f6ef8714610198578063ed90c7b7146101b6578063ef6da8d4146101d2578063f2943dce146101ee578063f851a44014610220576100a9565b80634909f98b146100ae5780637acc0b20146100ca5780639d4a2255146100fe578063b9db15b41461012e578063c29b2f201461015e575b600080fd5b6100c860048036038101906100c39190611808565b61023e565b005b6100e460048036038101906100df91906116a2565b6103d4565b6040516100f5959493929190611d35565b60405180910390f35b610118600480360381019061011391906116a2565b6106b2565b6040516101259190611d13565b60405180910390f35b610148600480360381019061014391906116a2565b610829565b6040516101559190611e0b565b60405180910390f35b610166610b2f565b6040516101739190611cf1565b60405180910390f35b610196600480360381019061019191906116cb565b610f14565b005b6101a06110bd565b6040516101ad9190611e2d565b60405180910390f35b6101d060048036038101906101cb91906116a2565b6110c3565b005b6101ec60048036038101906101e791906115b3565b6111ff565b005b610208600480360381019061020391906117cc565b6112ed565b60405161021793929190611cb3565b60405180910390f35b6102286113e9565b6040516102359190611c98565b60405180910390f35b6002548310610282576040517f08c379a000000000000000000000000000000000000000000000000000000000815260040161027990611dab565b60405180910390fd5b60008260ff16118015610299575060058260ff1611155b6102d8576040517f08c379a00000000000000000000000000000000000000000000000000000000081526004016102cf90611dcb565b60405180910390fd5b6001600084815260200190815260200160002060405180606001604052803373ffffffffffffffffffffffffffffffffffffffff1681526020018460ff16815260200183815250908060018154018082558091505060019003906000526020600020906002020160009091909190915060008201518160000160006101000a81548173ffffffffffffffffffffffffffffffffffffffff021916908373ffffffffffffffffffffffffffffffffffffffff16021790555060208201518160000160146101000a81548160ff021916908360ff16021790555060408201518160010190805190602001906103cc92919061140f565b505050505050565b60006020528060005260406000206000915090508060000180546103f790611fd3565b80601f016020809104026020016040519081016040528092919081815260200182805461042390611fd3565b80156104705780601f1061044557610100808354040283529160200191610470565b820191906000526020600020905b81548152906001019060200180831161045357829003601f168201915b50505050509080600101805461048590611fd3565b80601f01602080910402602001604051908101604052809291908181526020018280546104b190611fd3565b80156104fe5780601f106104d3576101008083540402835291602001916104fe565b820191906000526020600020905b8154815290600101906020018083116104e157829003601f168201915b50505050509080600201805461051390611fd3565b80601f016020809104026020016040519081016040528092919081815260200182805461053f90611fd3565b801561058c5780601f106105615761010080835404028352916020019161058c565b820191906000526020600020905b81548152906001019060200180831161056f57829003601f168201915b5050505050908060030180546105a190611fd3565b80601f01602080910402602001604051908101604052809291908181526020018280546105cd90611fd3565b801561061a5780601f106105ef5761010080835404028352916020019161061a565b820191906000526020600020905b8154815290600101906020018083116105fd57829003601f168201915b50505050509080600401805461062f90611fd3565b80601f016020809104026020016040519081016040528092919081815260200182805461065b90611fd3565b80156106a85780601f1061067d576101008083540402835291602001916106a8565b820191906000526020600020905b81548152906001019060200180831161068b57829003601f168201915b5050505050905085565b606060016000838152602001908152602001600020805480602002602001604051908101604052809291908181526020016000905b8282101561081e57838290600052602060002090600202016040518060600160405290816000820160009054906101000a900473ffffffffffffffffffffffffffffffffffffffff1673ffffffffffffffffffffffffffffffffffffffff1673ffffffffffffffffffffffffffffffffffffffff1681526020016000820160149054906101000a900460ff1660ff1660ff16815260200160018201805461078d90611fd3565b80601f01602080910402602001604051908101604052809291908181526020018280546107b990611fd3565b80156108065780601f106107db57610100808354040283529160200191610806565b820191906000526020600020905b8154815290600101906020018083116107e957829003601f168201915b505050505081525050815260200190600101906106e7565b505050509050919050565b610831611495565b6000808381526020019081526020016000206040518060a001604052908160008201805461085e90611fd3565b80601f016020809104026020016040519081016040528092919081815260200182805461088a90611fd3565b80156108d75780601f106108ac576101008083540402835291602001916108d7565b820191906000526020600020905b8154815290600101906020018083116108ba57829003601f168201915b505050505081526020016001820180546108f090611fd3565b80601f016020809104026020016040519081016040528092919081815260200182805461091c90611fd3565b80156109695780601f1061093e57610100808354040283529160200191610969565b820191906000526020600020905b81548152906001019060200180831161094c57829003601f168201915b5050505050815260200160028201805461098290611fd3565b80601f01602080910402602001604051908101604052809291908181526020018280546109ae90611fd3565b80156109fb5780601f106109d0576101008083540402835291602001916109fb565b820191906000526020600020905b8154815290600101906020018083116109de57829003601f168201915b50505050508152602001600382018054610a1490611fd3565b80601f0160208091040260200160405190810160405280929190818152602001828054610a4090611fd3565b8015610a8d5780601f10610a6257610100808354040283529160200191610a8d565b820191906000526020600020905b815481529060010190602001808311610a7057829003601f168201915b50505050508152602001600482018054610aa690611fd3565b80601f0160208091040260200160405190810160405280929190818152602001828054610ad290611fd3565b8015610b1f5780601f10610af457610100808354040283529160200191610b1f565b820191906000526020600020905b815481529060010190602001808311610b0257829003601f168201915b5050505050815250509050919050565b6060600060025467ffffffffffffffff811115610b75577f4e487b7100000000000000000000000000000000000000000000000000000000600052604160045260246000fd5b604051908082528060200260200182016040528015610bae57816020015b610b9b611495565b815260200190600190039081610b935790505b50905060005b600254811015610f0c576000808281526020019081526020016000206040518060a0016040529081600082018054610beb90611fd3565b80601f0160208091040260200160405190810160405280929190818152602001828054610c1790611fd3565b8015610c645780601f10610c3957610100808354040283529160200191610c64565b820191906000526020600020905b815481529060010190602001808311610c4757829003601f168201915b50505050508152602001600182018054610c7d90611fd3565b80601f0160208091040260200160405190810160405280929190818152602001828054610ca990611fd3565b8015610cf65780601f10610ccb57610100808354040283529160200191610cf6565b820191906000526020600020905b815481529060010190602001808311610cd957829003601f168201915b50505050508152602001600282018054610d0f90611fd3565b80601f0160208091040260200160405190810160405280929190818152602001828054610d3b90611fd3565b8015610d885780601f10610d5d57610100808354040283529160200191610d88565b820191906000526020600020905b815481529060010190602001808311610d6b57829003601f168201915b50505050508152602001600382018054610da190611fd3565b80601f0160208091040260200160405190810160405280929190818152602001828054610dcd90611fd3565b8015610e1a5780601f10610def57610100808354040283529160200191610e1a565b820191906000526020600020905b815481529060010190602001808311610dfd57829003601f168201915b50505050508152602001600482018054610e3390611fd3565b80601f0160208091040260200160405190810160405280929190818152602001828054610e5f90611fd3565b8015610eac5780601f10610e8157610100808354040283529160200191610eac565b820191906000526020600020905b815481529060010190602001808311610e8f57829003601f168201915b505050505081525050828281518110610eee577f4e487b7100000000000000000000000000000000000000000000000000000000600052603260045260246000fd5b60200260200101819052508080610f0490612005565b915050610bb4565b508091505090565b600360009054906101000a900473ffffffffffffffffffffffffffffffffffffffff1673ffffffffffffffffffffffffffffffffffffffff163373ffffffffffffffffffffffffffffffffffffffff1614610fa4576040517f08c379a0000000000000000000000000000000000000000000000000000000008152600401610f9b90611deb565b60405180910390fd5b6002548610610fe8576040517f08c379a0000000000000000000000000000000000000000000000000000000008152600401610fdf90611dab565b60405180910390fd5b6040518060a0016040528086815260200185815260200184815260200183815260200182815250600080888152602001908152602001600020600082015181600001908051906020019061103d92919061140f565b50602082015181600101908051906020019061105a92919061140f565b50604082015181600201908051906020019061107792919061140f565b50606082015181600301908051906020019061109492919061140f565b5060808201518160040190805190602001906110b192919061140f565b50905050505050505050565b60025481565b600360009054906101000a900473ffffffffffffffffffffffffffffffffffffffff1673ffffffffffffffffffffffffffffffffffffffff163373ffffffffffffffffffffffffffffffffffffffff1614611153576040517f08c379a000000000000000000000000000000000000000000000000000000000815260040161114a90611deb565b60405180910390fd5b6002548110611197576040517f08c379a000000000000000000000000000000000000000000000000000000000815260040161118e90611dab565b60405180910390fd5b600080828152602001908152602001600020600080820160006111ba91906114c4565b6001820160006111ca91906114c4565b6002820160006111da91906114c4565b6003820160006111ea91906114c4565b6004820160006111fa91906114c4565b505050565b6040518060a00160405280868152602001858152602001848152602001838152602001828152506000806002548152602001908152602001600020600082015181600001908051906020019061125692919061140f565b50602082015181600101908051906020019061127392919061140f565b50604082015181600201908051906020019061129092919061140f565b5060608201518160030190805190602001906112ad92919061140f565b5060808201518160040190805190602001906112ca92919061140f565b50905050600260008154809291906112e190612005565b91905055505050505050565b6001602052816000526040600020818154811061130957600080fd5b9060005260206000209060020201600091509150508060000160009054906101000a900473ffffffffffffffffffffffffffffffffffffffff16908060000160149054906101000a900460ff169080600101805461136690611fd3565b80601f016020809104026020016040519081016040528092919081815260200182805461139290611fd3565b80156113df5780601f106113b4576101008083540402835291602001916113df565b820191906000526020600020905b8154815290600101906020018083116113c257829003601f168201915b5050505050905083565b600360009054906101000a900473ffffffffffffffffffffffffffffffffffffffff1681565b82805461141b90611fd3565b90600052602060002090601f01602090048101928261143d5760008555611484565b82601f1061145657805160ff1916838001178555611484565b82800160010185558215611484579182015b82811115611483578251825591602001919060010190611468565b5b5090506114919190611504565b5090565b6040518060a0016040528060608152602001606081526020016060815260200160608152602001606081525090565b5080546114d090611fd3565b6000825580601f106114e25750611501565b601f0160209004906000526020600020908101906115009190611504565b5b50565b5b8082111561151d576000816000905550600101611505565b5090565b600061153461152f84611e79565b611e48565b90508281526020810184848401111561154c57600080fd5b611557848285611f91565b509392505050565b600082601f83011261157057600080fd5b8135611580848260208601611521565b91505092915050565b600081359050611598816120ec565b92915050565b6000813590506115ad81612103565b92915050565b600080600080600060a086880312156115cb57600080fd5b600086013567ffffffffffffffff8111156115e557600080fd5b6115f18882890161155f565b955050602086013567ffffffffffffffff81111561160e57600080fd5b61161a8882890161155f565b945050604086013567ffffffffffffffff81111561163757600080fd5b6116438882890161155f565b935050606086013567ffffffffffffffff81111561166057600080fd5b61166c8882890161155f565b925050608086013567ffffffffffffffff81111561168957600080fd5b6116958882890161155f565b9150509295509295909350565b6000602082840312156116b457600080fd5b60006116c284828501611589565b91505092915050565b60008060008060008060c087890312156116e457600080fd5b60006116f289828a01611589565b965050602087013567ffffffffffffffff81111561170f57600080fd5b61171b89828a0161155f565b955050604087013567ffffffffffffffff81111561173857600080fd5b61174489828a0161155f565b945050606087013567ffffffffffffffff81111561176157600080fd5b61176d89828a0161155f565b935050608087013567ffffffffffffffff81111561178a57600080fd5b61179689828a0161155f565b92505060a087013567ffffffffffffffff8111156117b357600080fd5b6117bf89828a0161155f565b9150509295509295509295565b600080604083850312156117df57600080fd5b60006117ed85828601611589565b92505060206117fe85828601611589565b9150509250929050565b60008060006060848603121561181d57600080fd5b600061182b86828701611589565b935050602061183c8682870161159e565b925050604084013567ffffffffffffffff81111561185957600080fd5b6118658682870161155f565b9150509250925092565b600061187b8383611af7565b905092915050565b600061188f8383611c1b565b905092915050565b6118a081611f48565b82525050565b6118af81611f48565b82525050565b60006118c082611ec9565b6118ca8185611f04565b9350836020820285016118dc85611ea9565b8060005b8581101561191857848403895281516118f9858261186f565b945061190483611eea565b925060208a019950506001810190506118e0565b50829750879550505050505092915050565b600061193582611ed4565b61193f8185611f15565b93508360208202850161195185611eb9565b8060005b8581101561198d578484038952815161196e8582611883565b945061197983611ef7565b925060208a01995050600181019050611955565b50829750879550505050505092915050565b60006119aa82611edf565b6119b48185611f26565b93506119c4818560208601611fa0565b6119cd816120db565b840191505092915050565b60006119e382611edf565b6119ed8185611f37565b93506119fd818560208601611fa0565b611a06816120db565b840191505092915050565b6000611a1e601683611f37565b91507f50726f6475637420646f6573206e6f74206578697374000000000000000000006000830152602082019050919050565b6000611a5e601e83611f37565b91507f526174696e67206d757374206265206265747765656e203120616e64203500006000830152602082019050919050565b6000611a9e602283611f37565b91507f4f6e6c792061646d696e2063616e20706572666f726d2074686973206163746960008301527f6f6e0000000000000000000000000000000000000000000000000000000000006020830152604082019050919050565b600060a0830160008301518482036000860152611b14828261199f565b91505060208301518482036020860152611b2e828261199f565b91505060408301518482036040860152611b48828261199f565b91505060608301518482036060860152611b62828261199f565b91505060808301518482036080860152611b7c828261199f565b9150508091505092915050565b600060a0830160008301518482036000860152611ba6828261199f565b91505060208301518482036020860152611bc0828261199f565b91505060408301518482036040860152611bda828261199f565b91505060608301518482036060860152611bf4828261199f565b91505060808301518482036080860152611c0e828261199f565b9150508091505092915050565b6000606083016000830151611c336000860182611897565b506020830151611c466020860182611c7a565b5060408301518482036040860152611c5e828261199f565b9150508091505092915050565b611c7481611f7a565b82525050565b611c8381611f84565b82525050565b611c9281611f84565b82525050565b6000602082019050611cad60008301846118a6565b92915050565b6000606082019050611cc860008301866118a6565b611cd56020830185611c89565b8181036040830152611ce781846119d8565b9050949350505050565b60006020820190508181036000830152611d0b81846118b5565b905092915050565b60006020820190508181036000830152611d2d818461192a565b905092915050565b600060a0820190508181036000830152611d4f81886119d8565b90508181036020830152611d6381876119d8565b90508181036040830152611d7781866119d8565b90508181036060830152611d8b81856119d8565b90508181036080830152611d9f81846119d8565b90509695505050505050565b60006020820190508181036000830152611dc481611a11565b9050919050565b60006020820190508181036000830152611de481611a51565b9050919050565b60006020820190508181036000830152611e0481611a91565b9050919050565b60006020820190508181036000830152611e258184611b89565b905092915050565b6000602082019050611e426000830184611c6b565b92915050565b6000604051905081810181811067ffffffffffffffff82111715611e6f57611e6e6120ac565b5b8060405250919050565b600067ffffffffffffffff821115611e9457611e936120ac565b5b601f19601f8301169050602081019050919050565b6000819050602082019050919050565b6000819050602082019050919050565b600081519050919050565b600081519050919050565b600081519050919050565b6000602082019050919050565b6000602082019050919050565b600082825260208201905092915050565b600082825260208201905092915050565b600082825260208201905092915050565b600082825260208201905092915050565b6000611f5382611f5a565b9050919050565b600073ffffffffffffffffffffffffffffffffffffffff82169050919050565b6000819050919050565b600060ff82169050919050565b82818337600083830152505050565b60005b83811015611fbe578082015181840152602081019050611fa3565b83811115611fcd576000848401525b50505050565b60006002820490506001821680611feb57607f821691505b60208210811415611fff57611ffe61207d565b5b50919050565b600061201082611f7a565b91507fffffffffffffffffffffffffffffffffffffffffffffffffffffffffffffffff8214156120435761204261204e565b5b600182019050919050565b7f4e487b7100000000000000000000000000000000000000000000000000000000600052601160045260246000fd5b7f4e487b7100000000000000000000000000000000000000000000000000000000600052602260045260246000fd5b7f4e487b7100000000000000000000000000000000000000000000000000000000600052604160045260246000fd5b6000601f19601f8301169050919050565b6120f581611f7a565b811461210057600080fd5b50565b61210c81611f84565b811461211757600080fd5b5056fea2646970667358221220f7ad568523fccdbe0eca98ec3550d47a307aeb5745becb28e6ca860f36fffc8764736f6c63430008000033",
  "immutableReferences": {},
  "source": "// SPDX-License-Identifier: MIT\r\npragma solidity ^0.8.0;\r\n\r\ncontract ProductContract {\r\n    struct Product {\r\n        string name;\r\n        string description;\r\n        string origin;\r\n        string productionDate;\r\n        string farmingPractices;\r\n    }\r\n\r\n    struct Review {\r\n        address reviewer;\r\n        uint8 rating;\r\n        string comment;\r\n    }\r\n\r\n    mapping(uint256 => Product) public products;\r\n    mapping(uint256 => Review[]) public productReviews;\r\n    uint256 public productCount;\r\n\r\n    address public admin;\r\n\r\n    constructor() {\r\n        admin = msg.sender;\r\n    }\r\n\r\n    modifier onlyAdmin() {\r\n        require(msg.sender == admin, \"Only admin can perform this action\");\r\n        _;\r\n    }\r\n\r\n    function addProduct(\r\n        string memory _name,\r\n        string memory _description,\r\n        string memory _origin,\r\n        string memory _productionDate,\r\n        string memory _farmingPractices\r\n    ) public {\r\n        products[productCount] = Product(_name, _description, _origin, _productionDate, _farmingPractices);\r\n        productCount++;\r\n    }\r\n\r\n    function updateProduct(\r\n        uint256 _id,\r\n        string memory _name,\r\n        string memory _description,\r\n        string memory _origin,\r\n        string memory _productionDate,\r\n        string memory _farmingPractices\r\n    ) public onlyAdmin {\r\n        require(_id < productCount, \"Product does not exist\");\r\n        products[_id] = Product(_name, _description, _origin, _productionDate, _farmingPractices);\r\n    }\r\n\r\n    function deleteProduct(uint256 _id) public onlyAdmin {\r\n        require(_id < productCount, \"Product does not exist\");\r\n        delete products[_id];\r\n    }\r\n\r\n    function getProduct(uint256 _id) public view returns (Product memory) {\r\n        return products[_id];\r\n    }\r\n\r\n    function getProducts() public view returns (Product[] memory) {\r\n        Product[] memory productList = new Product[](productCount);\r\n        for (uint256 i = 0; i < productCount; i++) {\r\n            productList[i] = products[i];\r\n        }\r\n        return productList;\r\n    }\r\n\r\n    function addReview(uint256 _productId, uint8 _rating, string memory _comment) public {\r\n        require(_productId < productCount, \"Product does not exist\");\r\n        require(_rating > 0 && _rating <= 5, \"Rating must be between 1 and 5\");\r\n\r\n        productReviews[_productId].push(Review(msg.sender, _rating, _comment));\r\n    }\r\n\r\n    function getReviews(uint256 _productId) public view returns (Review[] memory) {\r\n        return productReviews[_productId];\r\n    }\r\n}\r\n",
  "sourcePath": "C:\\Users\\NoDuTy\\Desktop\\bluebery_BC\\blueberry-tracker\\contracts\\ProductContract.sol",
  "compiler": {
    "name": "solc",
    "version": "0.8.0+commit.c7dfd78e.Emscripten.clang"
  },
  "schemaVersion": "3.4.16",
  "updatedAt": "2024-06-09T15:16:42.137Z",
  "networkType": "ethereum",
  "devdoc": {
    "kind": "dev",
    "methods": {},
    "version": 1
  },
  "userdoc": {
    "kind": "user",
    "methods": {},
    "version": 1
  }
}