{
  "contractName": "TransactionContract",
  "abi": [
    {
      "inputs": [
        {
          "internalType": "address",
          "name": "_productContractAddress",
          "type": "address"
        }
      ],
      "stateMutability": "nonpayable",
      "type": "constructor"
    },
    {
      "anonymous": false,
      "inputs": [
        {
          "indexed": false,
          "internalType": "uint256",
          "name": "transactionId",
          "type": "uint256"
        },
        {
          "indexed": false,
          "internalType": "uint256",
          "name": "productId",
          "type": "uint256"
        },
        {
          "indexed": false,
          "internalType": "address",
          "name": "buyer",
          "type": "address"
        },
        {
          "indexed": false,
          "internalType": "string",
          "name": "shippingStatus",
          "type": "string"
        }
      ],
      "name": "ProductPurchased",
      "type": "event"
    },
    {
      "anonymous": false,
      "inputs": [
        {
          "indexed": false,
          "internalType": "uint256",
          "name": "transactionId",
          "type": "uint256"
        },
        {
          "indexed": false,
          "internalType": "string",
          "name": "shippingStatus",
          "type": "string"
        }
      ],
      "name": "ShippingStatusUpdated",
      "type": "event"
    },
    {
      "inputs": [],
      "name": "owner",
      "outputs": [
        {
          "internalType": "address",
          "name": "",
          "type": "address"
        }
      ],
      "stateMutability": "view",
      "type": "function",
      "constant": true
    },
    {
      "inputs": [],
      "name": "transactionCount",
      "outputs": [
        {
          "internalType": "uint256",
          "name": "",
          "type": "uint256"
        }
      ],
      "stateMutability": "view",
      "type": "function",
      "constant": true
    },
    {
      "inputs": [
        {
          "internalType": "uint256",
          "name": "",
          "type": "uint256"
        }
      ],
      "name": "transactions",
      "outputs": [
        {
          "internalType": "uint256",
          "name": "id",
          "type": "uint256"
        },
        {
          "internalType": "uint256",
          "name": "productId",
          "type": "uint256"
        },
        {
          "internalType": "address",
          "name": "buyer",
          "type": "address"
        },
        {
          "internalType": "uint256",
          "name": "purchaseTime",
          "type": "uint256"
        },
        {
          "internalType": "string",
          "name": "shippingStatus",
          "type": "string"
        }
      ],
      "stateMutability": "view",
      "type": "function",
      "constant": true
    },
    {
      "inputs": [
        {
          "internalType": "uint256",
          "name": "_productId",
          "type": "uint256"
        }
      ],
      "name": "buyProduct",
      "outputs": [],
      "stateMutability": "payable",
      "type": "function",
      "payable": true
    },
    {
      "inputs": [
        {
          "internalType": "uint256",
          "name": "_transactionId",
          "type": "uint256"
        }
      ],
      "name": "markAsShipped",
      "outputs": [],
      "stateMutability": "nonpayable",
      "type": "function"
    },
    {
      "inputs": [
        {
          "internalType": "uint256",
          "name": "_id",
          "type": "uint256"
        }
      ],
      "name": "getTransaction",
      "outputs": [
        {
          "components": [
            {
              "internalType": "uint256",
              "name": "id",
              "type": "uint256"
            },
            {
              "internalType": "uint256",
              "name": "productId",
              "type": "uint256"
            },
            {
              "internalType": "address",
              "name": "buyer",
              "type": "address"
            },
            {
              "internalType": "uint256",
              "name": "purchaseTime",
              "type": "uint256"
            },
            {
              "internalType": "string",
              "name": "shippingStatus",
              "type": "string"
            }
          ],
          "internalType": "struct TransactionContract.Transaction",
          "name": "",
          "type": "tuple"
        }
      ],
      "stateMutability": "view",
      "type": "function",
      "constant": true
    },
    {
      "inputs": [
        {
          "internalType": "uint256",
          "name": "_productId",
          "type": "uint256"
        }
      ],
      "name": "getTransactionsByProductId",
      "outputs": [
        {
          "components": [
            {
              "internalType": "uint256",
              "name": "id",
              "type": "uint256"
            },
            {
              "internalType": "uint256",
              "name": "productId",
              "type": "uint256"
            },
            {
              "internalType": "address",
              "name": "buyer",
              "type": "address"
            },
            {
              "internalType": "uint256",
              "name": "purchaseTime",
              "type": "uint256"
            },
            {
              "internalType": "string",
              "name": "shippingStatus",
              "type": "string"
            }
          ],
          "internalType": "struct TransactionContract.Transaction[]",
          "name": "",
          "type": "tuple[]"
        }
      ],
      "stateMutability": "view",
      "type": "function",
      "constant": true
    }
  ],
  "bytecode": "0x60806040523480156200001157600080fd5b5060405162001372380380620013728339818101604052810190620000379190620000d7565b80600260006101000a81548173ffffffffffffffffffffffffffffffffffffffff021916908373ffffffffffffffffffffffffffffffffffffffff16021790555033600360006101000a81548173ffffffffffffffffffffffffffffffffffffffff021916908373ffffffffffffffffffffffffffffffffffffffff1602179055505062000151565b600081519050620000d18162000137565b92915050565b600060208284031215620000ea57600080fd5b6000620000fa84828501620000c0565b91505092915050565b6000620001108262000117565b9050919050565b600073ffffffffffffffffffffffffffffffffffffffff82169050919050565b620001428162000103565b81146200014e57600080fd5b50565b61121180620001616000396000f3fe6080604052600436106100705760003560e01c80638da5cb5b1161004e5780638da5cb5b1461010b5780639ace38c214610136578063b77bf60014610177578063bd99840e146101a257610070565b806333ea3dc814610075578063716ae61c146100b25780638642269e146100ef575b600080fd5b34801561008157600080fd5b5061009c60048036038101906100979190610aa7565b6101cb565b6040516100a99190610ef6565b60405180910390f35b3480156100be57600080fd5b506100d960048036038101906100d49190610aa7565b6102fd565b6040516100e69190610e74565b60405180910390f35b61010960048036038101906101049190610aa7565b61058b565b005b34801561011757600080fd5b50610120610733565b60405161012d9190610e59565b60405180910390f35b34801561014257600080fd5b5061015d60048036038101906101589190610aa7565b610759565b60405161016e959493929190610fab565b60405180910390f35b34801561018357600080fd5b5061018c610837565b6040516101999190610f18565b60405180910390f35b3480156101ae57600080fd5b506101c960048036038101906101c49190610aa7565b61083d565b005b6101d36109aa565b6000808381526020019081526020016000206040518060a001604052908160008201548152602001600182015481526020016002820160009054906101000a900473ffffffffffffffffffffffffffffffffffffffff1673ffffffffffffffffffffffffffffffffffffffff1673ffffffffffffffffffffffffffffffffffffffff16815260200160038201548152602001600482018054610274906110da565b80601f01602080910402602001604051908101604052809291908181526020018280546102a0906110da565b80156102ed5780601f106102c2576101008083540402835291602001916102ed565b820191906000526020600020905b8154815290600101906020018083116102d057829003601f168201915b5050505050815250509050919050565b60606000805b60015481101561034c57836000808381526020019081526020016000206001015414156103395781806103359061110c565b9250505b80806103449061110c565b915050610303565b5060008167ffffffffffffffff81111561038f577f4e487b7100000000000000000000000000000000000000000000000000000000600052604160045260246000fd5b6040519080825280602002602001820160405280156103c857816020015b6103b56109aa565b8152602001906001900390816103ad5790505b5090506000805b60015481101561057f578560008083815260200190815260200160002060010154141561056c576000808281526020019081526020016000206040518060a001604052908160008201548152602001600182015481526020016002820160009054906101000a900473ffffffffffffffffffffffffffffffffffffffff1673ffffffffffffffffffffffffffffffffffffffff1673ffffffffffffffffffffffffffffffffffffffff16815260200160038201548152602001600482018054610497906110da565b80601f01602080910402602001604051908101604052809291908181526020018280546104c3906110da565b80156105105780601f106104e557610100808354040283529160200191610510565b820191906000526020600020905b8154815290600101906020018083116104f357829003601f168201915b505050505081525050838381518110610552577f4e487b7100000000000000000000000000000000000000000000000000000000600052603260045260246000fd5b602002602001018190525081806105689061110c565b9250505b80806105779061110c565b9150506103cf565b50819350505050919050565b600034116105ce576040517f08c379a00000000000000000000000000000000000000000000000000000000081526004016105c590610eb6565b60405180910390fd5b6040518060a0016040528060015481526020018281526020013373ffffffffffffffffffffffffffffffffffffffff1681526020014281526020016040518060400160405280600a81526020017f50726f63657373696e67000000000000000000000000000000000000000000008152508152506000806001548152602001908152602001600020600082015181600001556020820151816001015560408201518160020160006101000a81548173ffffffffffffffffffffffffffffffffffffffff021916908373ffffffffffffffffffffffffffffffffffffffff1602179055506060820151816003015560808201518160040190805190602001906106d79291906109ef565b509050507f8aefb567acdd757f54a877c95a76db12c75dab8ca74eaefbd4fcc8e7c3841bab600154823360405161071093929190610f61565b60405180910390a16001600081548092919061072b9061110c565b919050555050565b600360009054906101000a900473ffffffffffffffffffffffffffffffffffffffff1681565b60006020528060005260406000206000915090508060000154908060010154908060020160009054906101000a900473ffffffffffffffffffffffffffffffffffffffff16908060030154908060040180546107b4906110da565b80601f01602080910402602001604051908101604052809291908181526020018280546107e0906110da565b801561082d5780601f106108025761010080835404028352916020019161082d565b820191906000526020600020905b81548152906001019060200180831161081057829003601f168201915b5050505050905085565b60015481565b600360009054906101000a900473ffffffffffffffffffffffffffffffffffffffff1673ffffffffffffffffffffffffffffffffffffffff163373ffffffffffffffffffffffffffffffffffffffff16146108cd576040517f08c379a00000000000000000000000000000000000000000000000000000000081526004016108c490610e96565b60405180910390fd5b6001548110610911576040517f08c379a000000000000000000000000000000000000000000000000000000000815260040161090890610ed6565b60405180910390fd5b6040518060400160405280600781526020017f5368697070656400000000000000000000000000000000000000000000000000815250600080838152602001908152602001600020600401908051906020019061096f9291906109ef565b507fb1bf5887d927993924a8c957a8c6b3e5215fab42e8f1ebc983dd818e0ba3a5ab8160405161099f9190610f33565b60405180910390a150565b6040518060a001604052806000815260200160008152602001600073ffffffffffffffffffffffffffffffffffffffff16815260200160008152602001606081525090565b8280546109fb906110da565b90600052602060002090601f016020900481019282610a1d5760008555610a64565b82601f10610a3657805160ff1916838001178555610a64565b82800160010185558215610a64579182015b82811115610a63578251825591602001919060010190610a48565b5b509050610a719190610a75565b5090565b5b80821115610a8e576000816000905550600101610a76565b5090565b600081359050610aa1816111c4565b92915050565b600060208284031215610ab957600080fd5b6000610ac784828501610a92565b91505092915050565b6000610adc8383610d4f565b905092915050565b610aed8161106b565b82525050565b610afc8161106b565b82525050565b6000610b0d82611015565b610b178185611038565b935083602082028501610b2985611005565b8060005b85811015610b655784840389528151610b468582610ad0565b9450610b518361102b565b925060208a01995050600181019050610b2d565b50829750879550505050505092915050565b6000610b8282611020565b610b8c8185611049565b9350610b9c8185602086016110a7565b610ba5816111b3565b840191505092915050565b6000610bbb82611020565b610bc5818561105a565b9350610bd58185602086016110a7565b610bde816111b3565b840191505092915050565b6000610bf660258361105a565b91507f4f6e6c7920746865206f776e65722063616e2063616c6c20746869732066756e60008301527f6374696f6e0000000000000000000000000000000000000000000000000000006020830152604082019050919050565b6000610c5c601f8361105a565b91507f5061796d656e7420726571756972656420746f206275792070726f64756374006000830152602082019050919050565b6000610c9c600a8361105a565b91507f50726f63657373696e67000000000000000000000000000000000000000000006000830152602082019050919050565b6000610cdc601a8361105a565b91507f5472616e73616374696f6e20646f6573206e6f742065786973740000000000006000830152602082019050919050565b6000610d1c60078361105a565b91507f53686970706564000000000000000000000000000000000000000000000000006000830152602082019050919050565b600060a083016000830151610d676000860182610e3b565b506020830151610d7a6020860182610e3b565b506040830151610d8d6040860182610ae4565b506060830151610da06060860182610e3b565b5060808301518482036080860152610db88282610b77565b9150508091505092915050565b600060a083016000830151610ddd6000860182610e3b565b506020830151610df06020860182610e3b565b506040830151610e036040860182610ae4565b506060830151610e166060860182610e3b565b5060808301518482036080860152610e2e8282610b77565b9150508091505092915050565b610e448161109d565b82525050565b610e538161109d565b82525050565b6000602082019050610e6e6000830184610af3565b92915050565b60006020820190508181036000830152610e8e8184610b02565b905092915050565b60006020820190508181036000830152610eaf81610be9565b9050919050565b60006020820190508181036000830152610ecf81610c4f565b9050919050565b60006020820190508181036000830152610eef81610ccf565b9050919050565b60006020820190508181036000830152610f108184610dc5565b905092915050565b6000602082019050610f2d6000830184610e4a565b92915050565b6000604082019050610f486000830184610e4a565b8181036020830152610f5981610d0f565b905092915050565b6000608082019050610f766000830186610e4a565b610f836020830185610e4a565b610f906040830184610af3565b8181036060830152610fa181610c8f565b9050949350505050565b600060a082019050610fc06000830188610e4a565b610fcd6020830187610e4a565b610fda6040830186610af3565b610fe76060830185610e4a565b8181036080830152610ff98184610bb0565b90509695505050505050565b6000819050602082019050919050565b600081519050919050565b600081519050919050565b6000602082019050919050565b600082825260208201905092915050565b600082825260208201905092915050565b600082825260208201905092915050565b60006110768261107d565b9050919050565b600073ffffffffffffffffffffffffffffffffffffffff82169050919050565b6000819050919050565b60005b838110156110c55780820151818401526020810190506110aa565b838111156110d4576000848401525b50505050565b600060028204905060018216806110f257607f821691505b6020821081141561110657611105611184565b5b50919050565b60006111178261109d565b91507fffffffffffffffffffffffffffffffffffffffffffffffffffffffffffffffff82141561114a57611149611155565b5b600182019050919050565b7f4e487b7100000000000000000000000000000000000000000000000000000000600052601160045260246000fd5b7f4e487b7100000000000000000000000000000000000000000000000000000000600052602260045260246000fd5b6000601f19601f8301169050919050565b6111cd8161109d565b81146111d857600080fd5b5056fea2646970667358221220c129a2730470e924752fa48276b5a05d041c65902547701aef7611d36fb4e66964736f6c63430008000033",
  "immutableReferences": {},
  "source": "// SPDX-License-Identifier: MIT\r\npragma solidity ^0.8.0;\r\n\r\nimport \"./ProductContract.sol\";\r\n\r\ncontract TransactionContract {\r\n    struct Transaction {\r\n        uint256 id;\r\n        uint256 productId;\r\n        address buyer;\r\n        uint256 purchaseTime;\r\n        string shippingStatus;\r\n    }\r\n\r\n    mapping(uint256 => Transaction) public transactions;\r\n    uint256 public transactionCount;\r\n    ProductContract productContract;\r\n    address public owner;\r\n\r\n    event ProductPurchased(uint256 transactionId, uint256 productId, address buyer, string shippingStatus);\r\n    event ShippingStatusUpdated(uint256 transactionId, string shippingStatus);\r\n\r\n    modifier onlyOwner() {\r\n        require(msg.sender == owner, \"Only the owner can call this function\");\r\n        _;\r\n    }\r\n\r\n    constructor(address _productContractAddress) {\r\n        productContract = ProductContract(_productContractAddress);\r\n        owner = msg.sender;\r\n    }\r\n\r\n    function buyProduct(uint256 _productId) public payable {\r\n        require(msg.value > 0, \"Payment required to buy product\");\r\n        \r\n        transactions[transactionCount] = Transaction(transactionCount, _productId, msg.sender, block.timestamp, \"Processing\");\r\n        emit ProductPurchased(transactionCount, _productId, msg.sender, \"Processing\");\r\n        \r\n        transactionCount++;\r\n    }\r\n\r\n    function markAsShipped(uint256 _transactionId) public onlyOwner {\r\n        require(_transactionId < transactionCount, \"Transaction does not exist\");\r\n        transactions[_transactionId].shippingStatus = \"Shipped\";\r\n        emit ShippingStatusUpdated(_transactionId, \"Shipped\");\r\n    }\r\n\r\n    function getTransaction(uint256 _id) public view returns (Transaction memory) {\r\n        return transactions[_id];\r\n    }\r\n\r\n    function getTransactionsByProductId(uint256 _productId) public view returns (Transaction[] memory) {\r\n        uint256 count = 0;\r\n        for (uint256 i = 0; i < transactionCount; i++) {\r\n            if (transactions[i].productId == _productId) {\r\n                count++;\r\n            }\r\n        }\r\n\r\n        Transaction[] memory result = new Transaction[](count);\r\n        uint256 index = 0;\r\n        for (uint256 i = 0; i < transactionCount; i++) {\r\n            if (transactions[i].productId == _productId) {\r\n                result[index] = transactions[i];\r\n                index++;\r\n            }\r\n        }\r\n\r\n        return result;\r\n    }\r\n}\r\n",
  "sourcePath": "C:\\Users\\Kiu-Student\\Desktop\\blockb\\blueberry-tracker\\contracts\\TransactionContract.sol",
  "compiler": {
    "name": "solc",
    "version": "0.8.0+commit.c7dfd78e.Emscripten.clang"
  },
  "schemaVersion": "3.4.16",
  "updatedAt": "2024-06-25T20:38:12.822Z",
  "networkType": "ethereum",
  "devdoc": {
    "kind": "dev",
    "methods": {},
    "version": 1
  },
  "userdoc": {
    "kind": "user",
    "methods": {},
    "version": 1
  }
}