{
  "contractName": "ProductContract",
  "abi": [
    {
      "inputs": [],
      "name": "productCount",
      "outputs": [
        {
          "internalType": "uint256",
          "name": "",
          "type": "uint256"
        }
      ],
      "stateMutability": "view",
      "type": "function"
    },
    {
      "inputs": [
        {
          "internalType": "uint256",
          "name": "",
          "type": "uint256"
        }
      ],
      "name": "products",
      "outputs": [
        {
          "internalType": "uint256",
          "name": "id",
          "type": "uint256"
        },
        {
          "internalType": "string",
          "name": "name",
          "type": "string"
        },
        {
          "internalType": "string",
          "name": "description",
          "type": "string"
        },
        {
          "internalType": "string",
          "name": "origin",
          "type": "string"
        },
        {
          "internalType": "string",
          "name": "productionDate",
          "type": "string"
        },
        {
          "internalType": "string",
          "name": "methods",
          "type": "string"
        },
        {
          "internalType": "address",
          "name": "farmer",
          "type": "address"
        }
      ],
      "stateMutability": "view",
      "type": "function"
    },
    {
      "inputs": [
        {
          "internalType": "string",
          "name": "_name",
          "type": "string"
        },
        {
          "internalType": "string",
          "name": "_description",
          "type": "string"
        },
        {
          "internalType": "string",
          "name": "_origin",
          "type": "string"
        },
        {
          "internalType": "string",
          "name": "_productionDate",
          "type": "string"
        },
        {
          "internalType": "string",
          "name": "_methods",
          "type": "string"
        }
      ],
      "name": "createProduct",
      "outputs": [],
      "stateMutability": "nonpayable",
      "type": "function"
    },
    {
      "inputs": [
        {
          "internalType": "uint256",
          "name": "_id",
          "type": "uint256"
        }
      ],
      "name": "getProduct",
      "outputs": [
        {
          "components": [
            {
              "internalType": "uint256",
              "name": "id",
              "type": "uint256"
            },
            {
              "internalType": "string",
              "name": "name",
              "type": "string"
            },
            {
              "internalType": "string",
              "name": "description",
              "type": "string"
            },
            {
              "internalType": "string",
              "name": "origin",
              "type": "string"
            },
            {
              "internalType": "string",
              "name": "productionDate",
              "type": "string"
            },
            {
              "internalType": "string",
              "name": "methods",
              "type": "string"
            },
            {
              "internalType": "address",
              "name": "farmer",
              "type": "address"
            }
          ],
          "internalType": "struct ProductContract.Product",
          "name": "",
          "type": "tuple"
        }
      ],
      "stateMutability": "view",
      "type": "function"
    }
  ],
  "bytecode": "0x60806040526000805534801561001457600080fd5b50610ffc806100246000396000f3fe608060405234801561001057600080fd5b506004361061004c5760003560e01c80635b0769d6146100515780637acc0b201461006d578063b9db15b4146100a3578063e0f6ef87146100d3575b600080fd5b61006b60048036038101906100669190610a3d565b6100f1565b005b61008760048036038101906100829190610b2c565b610253565b60405161009a9796959493929190610cf8565b60405180910390f35b6100bd60048036038101906100b89190610b2c565b61055d565b6040516100ca9190610cbb565b60405180910390f35b6100db6108c4565b6040516100e89190610cdd565b60405180910390f35b60008081548092919061010390610ec8565b91905055506040518060e0016040528060005481526020018681526020018581526020018481526020018381526020018281526020013373ffffffffffffffffffffffffffffffffffffffff16815250600160008054815260200190815260200160002060008201518160000155602082015181600101908051906020019061018d9291906108ca565b5060408201518160020190805190602001906101aa9291906108ca565b5060608201518160030190805190602001906101c79291906108ca565b5060808201518160040190805190602001906101e49291906108ca565b5060a08201518160050190805190602001906102019291906108ca565b5060c08201518160060160006101000a81548173ffffffffffffffffffffffffffffffffffffffff021916908373ffffffffffffffffffffffffffffffffffffffff1602179055509050505050505050565b600160205280600052604060002060009150905080600001549080600101805461027c90610e96565b80601f01602080910402602001604051908101604052809291908181526020018280546102a890610e96565b80156102f55780601f106102ca576101008083540402835291602001916102f5565b820191906000526020600020905b8154815290600101906020018083116102d857829003601f168201915b50505050509080600201805461030a90610e96565b80601f016020809104026020016040519081016040528092919081815260200182805461033690610e96565b80156103835780601f1061035857610100808354040283529160200191610383565b820191906000526020600020905b81548152906001019060200180831161036657829003601f168201915b50505050509080600301805461039890610e96565b80601f01602080910402602001604051908101604052809291908181526020018280546103c490610e96565b80156104115780601f106103e657610100808354040283529160200191610411565b820191906000526020600020905b8154815290600101906020018083116103f457829003601f168201915b50505050509080600401805461042690610e96565b80601f016020809104026020016040519081016040528092919081815260200182805461045290610e96565b801561049f5780601f106104745761010080835404028352916020019161049f565b820191906000526020600020905b81548152906001019060200180831161048257829003601f168201915b5050505050908060050180546104b490610e96565b80601f01602080910402602001604051908101604052809291908181526020018280546104e090610e96565b801561052d5780601f106105025761010080835404028352916020019161052d565b820191906000526020600020905b81548152906001019060200180831161051057829003601f168201915b5050505050908060060160009054906101000a900473ffffffffffffffffffffffffffffffffffffffff16905087565b610565610950565b600160008381526020019081526020016000206040518060e00160405290816000820154815260200160018201805461059d90610e96565b80601f01602080910402602001604051908101604052809291908181526020018280546105c990610e96565b80156106165780601f106105eb57610100808354040283529160200191610616565b820191906000526020600020905b8154815290600101906020018083116105f957829003601f168201915b5050505050815260200160028201805461062f90610e96565b80601f016020809104026020016040519081016040528092919081815260200182805461065b90610e96565b80156106a85780601f1061067d576101008083540402835291602001916106a8565b820191906000526020600020905b81548152906001019060200180831161068b57829003601f168201915b505050505081526020016003820180546106c190610e96565b80601f01602080910402602001604051908101604052809291908181526020018280546106ed90610e96565b801561073a5780601f1061070f5761010080835404028352916020019161073a565b820191906000526020600020905b81548152906001019060200180831161071d57829003601f168201915b5050505050815260200160048201805461075390610e96565b80601f016020809104026020016040519081016040528092919081815260200182805461077f90610e96565b80156107cc5780601f106107a1576101008083540402835291602001916107cc565b820191906000526020600020905b8154815290600101906020018083116107af57829003601f168201915b505050505081526020016005820180546107e590610e96565b80601f016020809104026020016040519081016040528092919081815260200182805461081190610e96565b801561085e5780601f106108335761010080835404028352916020019161085e565b820191906000526020600020905b81548152906001019060200180831161084157829003601f168201915b505050505081526020016006820160009054906101000a900473ffffffffffffffffffffffffffffffffffffffff1673ffffffffffffffffffffffffffffffffffffffff1673ffffffffffffffffffffffffffffffffffffffff16815250509050919050565b60005481565b8280546108d690610e96565b90600052602060002090601f0160209004810192826108f8576000855561093f565b82601f1061091157805160ff191683800117855561093f565b8280016001018555821561093f579182015b8281111561093e578251825591602001919060010190610923565b5b50905061094c91906109a3565b5090565b6040518060e00160405280600081526020016060815260200160608152602001606081526020016060815260200160608152602001600073ffffffffffffffffffffffffffffffffffffffff1681525090565b5b808211156109bc5760008160009055506001016109a4565b5090565b60006109d36109ce84610dbb565b610d8a565b9050828152602081018484840111156109eb57600080fd5b6109f6848285610e54565b509392505050565b600082601f830112610a0f57600080fd5b8135610a1f8482602086016109c0565b91505092915050565b600081359050610a3781610faf565b92915050565b600080600080600060a08688031215610a5557600080fd5b600086013567ffffffffffffffff811115610a6f57600080fd5b610a7b888289016109fe565b955050602086013567ffffffffffffffff811115610a9857600080fd5b610aa4888289016109fe565b945050604086013567ffffffffffffffff811115610ac157600080fd5b610acd888289016109fe565b935050606086013567ffffffffffffffff811115610aea57600080fd5b610af6888289016109fe565b925050608086013567ffffffffffffffff811115610b1357600080fd5b610b1f888289016109fe565b9150509295509295909350565b600060208284031215610b3e57600080fd5b6000610b4c84828501610a28565b91505092915050565b610b5e81610e18565b82525050565b610b6d81610e18565b82525050565b6000610b7e82610deb565b610b888185610df6565b9350610b98818560208601610e63565b610ba181610f9e565b840191505092915050565b6000610bb782610deb565b610bc18185610e07565b9350610bd1818560208601610e63565b610bda81610f9e565b840191505092915050565b600060e083016000830151610bfd6000860182610c9d565b5060208301518482036020860152610c158282610b73565b91505060408301518482036040860152610c2f8282610b73565b91505060608301518482036060860152610c498282610b73565b91505060808301518482036080860152610c638282610b73565b91505060a083015184820360a0860152610c7d8282610b73565b91505060c0830151610c9260c0860182610b55565b508091505092915050565b610ca681610e4a565b82525050565b610cb581610e4a565b82525050565b60006020820190508181036000830152610cd58184610be5565b905092915050565b6000602082019050610cf26000830184610cac565b92915050565b600060e082019050610d0d600083018a610cac565b8181036020830152610d1f8189610bac565b90508181036040830152610d338188610bac565b90508181036060830152610d478187610bac565b90508181036080830152610d5b8186610bac565b905081810360a0830152610d6f8185610bac565b9050610d7e60c0830184610b64565b98975050505050505050565b6000604051905081810181811067ffffffffffffffff82111715610db157610db0610f6f565b5b8060405250919050565b600067ffffffffffffffff821115610dd657610dd5610f6f565b5b601f19601f8301169050602081019050919050565b600081519050919050565b600082825260208201905092915050565b600082825260208201905092915050565b6000610e2382610e2a565b9050919050565b600073ffffffffffffffffffffffffffffffffffffffff82169050919050565b6000819050919050565b82818337600083830152505050565b60005b83811015610e81578082015181840152602081019050610e66565b83811115610e90576000848401525b50505050565b60006002820490506001821680610eae57607f821691505b60208210811415610ec257610ec1610f40565b5b50919050565b6000610ed382610e4a565b91507fffffffffffffffffffffffffffffffffffffffffffffffffffffffffffffffff821415610f0657610f05610f11565b5b600182019050919050565b7f4e487b7100000000000000000000000000000000000000000000000000000000600052601160045260246000fd5b7f4e487b7100000000000000000000000000000000000000000000000000000000600052602260045260246000fd5b7f4e487b7100000000000000000000000000000000000000000000000000000000600052604160045260246000fd5b6000601f19601f8301169050919050565b610fb881610e4a565b8114610fc357600080fd5b5056fea2646970667358221220f977f6a14daec10aff6786eed95abb7bcb07f644945a00783685879748eb507864736f6c63430008000033",
  "immutableReferences": {},
  "source": "// contracts/ProductContract.sol\r\n// SPDX-License-Identifier: MIT\r\npragma solidity ^0.8.0;\r\n\r\ncontract ProductContract {\r\n    struct Product {\r\n        uint id;\r\n        string name;\r\n        string description;\r\n        string origin;\r\n        string productionDate;\r\n        string methods;\r\n        address farmer;\r\n    }\r\n\r\n    uint public productCount = 0;\r\n    mapping(uint => Product) public products;\r\n\r\n    function createProduct(\r\n        string memory _name,\r\n        string memory _description,\r\n        string memory _origin,\r\n        string memory _productionDate,\r\n        string memory _methods\r\n    ) public {\r\n        productCount++;\r\n        products[productCount] = Product(\r\n            productCount,\r\n            _name,\r\n            _description,\r\n            _origin,\r\n            _productionDate,\r\n            _methods,\r\n            msg.sender\r\n        );\r\n    }\r\n\r\n    function getProduct(uint _id) public view returns (Product memory) {\r\n        return products[_id];\r\n    }\r\n}\r\n",
  "sourcePath": "C:\\Users\\NoDuTy\\Desktop\\bluebery_BC\\blueberry-tracker\\contracts\\ProductContract.sol",
  "compiler": {
    "name": "solc",
    "version": "0.8.0+commit.c7dfd78e.Emscripten.clang"
  },
  "schemaVersion": "3.4.16",
  "updatedAt": "2024-06-08T12:36:08.778Z",
  "devdoc": {
    "kind": "dev",
    "methods": {},
    "version": 1
  },
  "userdoc": {
    "kind": "user",
    "methods": {},
    "version": 1
  }
}