{
  "contractName": "TransactionContract",
  "abi": [
    {
      "inputs": [
        {
          "internalType": "address",
          "name": "_productContractAddress",
          "type": "address"
        }
      ],
      "stateMutability": "nonpayable",
      "type": "constructor"
    },
    {
      "anonymous": false,
      "inputs": [
        {
          "indexed": false,
          "internalType": "uint256",
          "name": "transactionId",
          "type": "uint256"
        },
        {
          "indexed": false,
          "internalType": "uint256",
          "name": "productId",
          "type": "uint256"
        },
        {
          "indexed": false,
          "internalType": "address",
          "name": "buyer",
          "type": "address"
        }
      ],
      "name": "ProductPurchased",
      "type": "event"
    },
    {
      "inputs": [],
      "name": "transactionCount",
      "outputs": [
        {
          "internalType": "uint256",
          "name": "",
          "type": "uint256"
        }
      ],
      "stateMutability": "view",
      "type": "function",
      "constant": true
    },
    {
      "inputs": [
        {
          "internalType": "uint256",
          "name": "",
          "type": "uint256"
        }
      ],
      "name": "transactions",
      "outputs": [
        {
          "internalType": "uint256",
          "name": "id",
          "type": "uint256"
        },
        {
          "internalType": "uint256",
          "name": "productId",
          "type": "uint256"
        },
        {
          "internalType": "address",
          "name": "buyer",
          "type": "address"
        },
        {
          "internalType": "uint256",
          "name": "purchaseTime",
          "type": "uint256"
        }
      ],
      "stateMutability": "view",
      "type": "function",
      "constant": true
    },
    {
      "inputs": [
        {
          "internalType": "uint256",
          "name": "_productId",
          "type": "uint256"
        }
      ],
      "name": "buyProduct",
      "outputs": [],
      "stateMutability": "payable",
      "type": "function",
      "payable": true
    },
    {
      "inputs": [
        {
          "internalType": "uint256",
          "name": "_id",
          "type": "uint256"
        }
      ],
      "name": "getTransaction",
      "outputs": [
        {
          "components": [
            {
              "internalType": "uint256",
              "name": "id",
              "type": "uint256"
            },
            {
              "internalType": "uint256",
              "name": "productId",
              "type": "uint256"
            },
            {
              "internalType": "address",
              "name": "buyer",
              "type": "address"
            },
            {
              "internalType": "uint256",
              "name": "purchaseTime",
              "type": "uint256"
            }
          ],
          "internalType": "struct TransactionContract.Transaction",
          "name": "",
          "type": "tuple"
        }
      ],
      "stateMutability": "view",
      "type": "function",
      "constant": true
    },
    {
      "inputs": [
        {
          "internalType": "uint256",
          "name": "_productId",
          "type": "uint256"
        }
      ],
      "name": "getTransactionsByProductId",
      "outputs": [
        {
          "components": [
            {
              "internalType": "uint256",
              "name": "id",
              "type": "uint256"
            },
            {
              "internalType": "uint256",
              "name": "productId",
              "type": "uint256"
            },
            {
              "internalType": "address",
              "name": "buyer",
              "type": "address"
            },
            {
              "internalType": "uint256",
              "name": "purchaseTime",
              "type": "uint256"
            }
          ],
          "internalType": "struct TransactionContract.Transaction[]",
          "name": "",
          "type": "tuple[]"
        }
      ],
      "stateMutability": "view",
      "type": "function",
      "constant": true
    }
  ],
  "bytecode": "0x608060405234801561001057600080fd5b50604051610af8380380610af88339818101604052810190610032919061008e565b80600260006101000a81548173ffffffffffffffffffffffffffffffffffffffff021916908373ffffffffffffffffffffffffffffffffffffffff16021790555050610100565b600081519050610088816100e9565b92915050565b6000602082840312156100a057600080fd5b60006100ae84828501610079565b91505092915050565b60006100c2826100c9565b9050919050565b600073ffffffffffffffffffffffffffffffffffffffff82169050919050565b6100f2816100b7565b81146100fd57600080fd5b50565b6109e98061010f6000396000f3fe60806040526004361061004a5760003560e01c806333ea3dc81461004f578063716ae61c1461008c5780638642269e146100c95780639ace38c2146100e5578063b77bf60014610125575b600080fd5b34801561005b57600080fd5b50610076600480360381019061007191906105e5565b610150565b60405161008391906107ec565b60405180910390f35b34801561009857600080fd5b506100b360048036038101906100ae91906105e5565b6101f0565b6040516100c091906107aa565b60405180910390f35b6100e360048036038101906100de91906105e5565b6103ec565b005b3480156100f157600080fd5b5061010c600480360381019061010791906105e5565b61053c565b60405161011c9493929190610859565b60405180910390f35b34801561013157600080fd5b5061013a61058c565b6040516101479190610807565b60405180910390f35b610158610592565b60008083815260200190815260200160002060405180608001604052908160008201548152602001600182015481526020016002820160009054906101000a900473ffffffffffffffffffffffffffffffffffffffff1673ffffffffffffffffffffffffffffffffffffffff1673ffffffffffffffffffffffffffffffffffffffff1681526020016003820154815250509050919050565b60606000805b60015481101561023f578360008083815260200190815260200160002060010154141561022c57818061022890610924565b9250505b808061023790610924565b9150506101f6565b5060008167ffffffffffffffff811115610282577f4e487b7100000000000000000000000000000000000000000000000000000000600052604160045260246000fd5b6040519080825280602002602001820160405280156102bb57816020015b6102a8610592565b8152602001906001900390816102a05790505b5090506000805b6001548110156103e057856000808381526020019081526020016000206001015414156103cd5760008082815260200190815260200160002060405180608001604052908160008201548152602001600182015481526020016002820160009054906101000a900473ffffffffffffffffffffffffffffffffffffffff1673ffffffffffffffffffffffffffffffffffffffff1673ffffffffffffffffffffffffffffffffffffffff1681526020016003820154815250508383815181106103b3577f4e487b7100000000000000000000000000000000000000000000000000000000600052603260045260246000fd5b602002602001018190525081806103c990610924565b9250505b80806103d890610924565b9150506102c2565b50819350505050919050565b6000341161042f576040517f08c379a0000000000000000000000000000000000000000000000000000000008152600401610426906107cc565b60405180910390fd5b604051806080016040528060015481526020018281526020013373ffffffffffffffffffffffffffffffffffffffff168152602001428152506000806001548152602001908152602001600020600082015181600001556020820151816001015560408201518160020160006101000a81548173ffffffffffffffffffffffffffffffffffffffff021916908373ffffffffffffffffffffffffffffffffffffffff160217905550606082015181600301559050507fcf56b0adeb8d78b1faf3ec7294369603647cda5633357436d89fb3e653fabf81600154823360405161051993929190610822565b60405180910390a16001600081548092919061053490610924565b919050555050565b60006020528060005260406000206000915090508060000154908060010154908060020160009054906101000a900473ffffffffffffffffffffffffffffffffffffffff16908060030154905084565b60015481565b60405180608001604052806000815260200160008152602001600073ffffffffffffffffffffffffffffffffffffffff168152602001600081525090565b6000813590506105df8161099c565b92915050565b6000602082840312156105f757600080fd5b6000610605848285016105d0565b91505092915050565b600061061a83836106e2565b60808301905092915050565b61062f816108e8565b82525050565b61063e816108e8565b82525050565b600061064f826108ae565b61065981856108c6565b93506106648361089e565b8060005b8381101561069557815161067c888261060e565b9750610687836108b9565b925050600181019050610668565b5085935050505092915050565b60006106af601f836108d7565b91507f5061796d656e7420726571756972656420746f206275792070726f64756374006000830152602082019050919050565b6080820160008201516106f8600085018261078c565b50602082015161070b602085018261078c565b50604082015161071e6040850182610626565b506060820151610731606085018261078c565b50505050565b60808201600082015161074d600085018261078c565b506020820151610760602085018261078c565b5060408201516107736040850182610626565b506060820151610786606085018261078c565b50505050565b6107958161091a565b82525050565b6107a48161091a565b82525050565b600060208201905081810360008301526107c48184610644565b905092915050565b600060208201905081810360008301526107e5816106a2565b9050919050565b60006080820190506108016000830184610737565b92915050565b600060208201905061081c600083018461079b565b92915050565b6000606082019050610837600083018661079b565b610844602083018561079b565b6108516040830184610635565b949350505050565b600060808201905061086e600083018761079b565b61087b602083018661079b565b6108886040830185610635565b610895606083018461079b565b95945050505050565b6000819050602082019050919050565b600081519050919050565b6000602082019050919050565b600082825260208201905092915050565b600082825260208201905092915050565b60006108f3826108fa565b9050919050565b600073ffffffffffffffffffffffffffffffffffffffff82169050919050565b6000819050919050565b600061092f8261091a565b91507fffffffffffffffffffffffffffffffffffffffffffffffffffffffffffffffff8214156109625761096161096d565b5b600182019050919050565b7f4e487b7100000000000000000000000000000000000000000000000000000000600052601160045260246000fd5b6109a58161091a565b81146109b057600080fd5b5056fea2646970667358221220c22bd69a2d3040221d43befb42bfd1a666afb6892806c9dad55a31704f9e317764736f6c63430008000033",
  "immutableReferences": {},
  "source": "// SPDX-License-Identifier: MIT\r\npragma solidity ^0.8.0;\r\n\r\nimport \"./ProductContract.sol\";\r\n\r\ncontract TransactionContract {\r\n    struct Transaction {\r\n        uint256 id;\r\n        uint256 productId;\r\n        address buyer;\r\n        uint256 purchaseTime;\r\n    }\r\n\r\n    mapping(uint256 => Transaction) public transactions;\r\n    uint256 public transactionCount;\r\n    ProductContract productContract;\r\n\r\n    event ProductPurchased(uint256 transactionId, uint256 productId, address buyer);\r\n\r\n    constructor(address _productContractAddress) {\r\n        productContract = ProductContract(_productContractAddress);\r\n    }\r\n\r\n    function buyProduct(uint256 _productId) public payable {\r\n        require(msg.value > 0, \"Payment required to buy product\");\r\n        \r\n        transactions[transactionCount] = Transaction(transactionCount, _productId, msg.sender, block.timestamp);\r\n        emit ProductPurchased(transactionCount, _productId, msg.sender);\r\n        \r\n        transactionCount++;\r\n    }\r\n\r\n    function getTransaction(uint256 _id) public view returns (Transaction memory) {\r\n        return transactions[_id];\r\n    }\r\n\r\n    function getTransactionsByProductId(uint256 _productId) public view returns (Transaction[] memory) {\r\n        uint256 count = 0;\r\n        for (uint256 i = 0; i < transactionCount; i++) {\r\n            if (transactions[i].productId == _productId) {\r\n                count++;\r\n            }\r\n        }\r\n\r\n        Transaction[] memory result = new Transaction[](count);\r\n        uint256 index = 0;\r\n        for (uint256 i = 0; i < transactionCount; i++) {\r\n            if (transactions[i].productId == _productId) {\r\n                result[index] = transactions[i];\r\n                index++;\r\n            }\r\n        }\r\n\r\n        return result;\r\n    }\r\n}\r\n",
  "sourcePath": "C:\\Users\\Kiu-Student\\Desktop\\blockb\\blueberry-tracker\\contracts\\TransactionContract.sol",
  "compiler": {
    "name": "solc",
    "version": "0.8.0+commit.c7dfd78e.Emscripten.clang"
  },
  "schemaVersion": "3.4.16",
  "updatedAt": "2024-06-19T09:22:34.541Z",
  "networkType": "ethereum",
  "devdoc": {
    "kind": "dev",
    "methods": {},
    "version": 1
  },
  "userdoc": {
    "kind": "user",
    "methods": {},
    "version": 1
  }
}