{
  "contractName": "TransactionContract",
  "abi": [
    {
      "inputs": [
        {
          "internalType": "address",
          "name": "_productContractAddress",
          "type": "address"
        }
      ],
      "stateMutability": "nonpayable",
      "type": "constructor"
    },
    {
      "anonymous": false,
      "inputs": [
        {
          "indexed": false,
          "internalType": "uint256",
          "name": "transactionId",
          "type": "uint256"
        },
        {
          "indexed": false,
          "internalType": "uint256",
          "name": "productId",
          "type": "uint256"
        },
        {
          "indexed": false,
          "internalType": "address",
          "name": "buyer",
          "type": "address"
        },
        {
          "indexed": false,
          "internalType": "string",
          "name": "shippingStatus",
          "type": "string"
        }
      ],
      "name": "ProductPurchased",
      "type": "event"
    },
    {
      "inputs": [],
      "name": "transactionCount",
      "outputs": [
        {
          "internalType": "uint256",
          "name": "",
          "type": "uint256"
        }
      ],
      "stateMutability": "view",
      "type": "function",
      "constant": true
    },
    {
      "inputs": [
        {
          "internalType": "uint256",
          "name": "",
          "type": "uint256"
        }
      ],
      "name": "transactions",
      "outputs": [
        {
          "internalType": "uint256",
          "name": "id",
          "type": "uint256"
        },
        {
          "internalType": "uint256",
          "name": "productId",
          "type": "uint256"
        },
        {
          "internalType": "address",
          "name": "buyer",
          "type": "address"
        },
        {
          "internalType": "uint256",
          "name": "purchaseTime",
          "type": "uint256"
        },
        {
          "internalType": "string",
          "name": "shippingStatus",
          "type": "string"
        }
      ],
      "stateMutability": "view",
      "type": "function",
      "constant": true
    },
    {
      "inputs": [
        {
          "internalType": "uint256",
          "name": "_productId",
          "type": "uint256"
        }
      ],
      "name": "buyProduct",
      "outputs": [],
      "stateMutability": "payable",
      "type": "function",
      "payable": true
    },
    {
      "inputs": [
        {
          "internalType": "uint256",
          "name": "_transactionId",
          "type": "uint256"
        },
        {
          "internalType": "string",
          "name": "_status",
          "type": "string"
        }
      ],
      "name": "updateShippingStatus",
      "outputs": [],
      "stateMutability": "nonpayable",
      "type": "function"
    },
    {
      "inputs": [
        {
          "internalType": "uint256",
          "name": "_id",
          "type": "uint256"
        }
      ],
      "name": "getTransaction",
      "outputs": [
        {
          "components": [
            {
              "internalType": "uint256",
              "name": "id",
              "type": "uint256"
            },
            {
              "internalType": "uint256",
              "name": "productId",
              "type": "uint256"
            },
            {
              "internalType": "address",
              "name": "buyer",
              "type": "address"
            },
            {
              "internalType": "uint256",
              "name": "purchaseTime",
              "type": "uint256"
            },
            {
              "internalType": "string",
              "name": "shippingStatus",
              "type": "string"
            }
          ],
          "internalType": "struct TransactionContract.Transaction",
          "name": "",
          "type": "tuple"
        }
      ],
      "stateMutability": "view",
      "type": "function",
      "constant": true
    },
    {
      "inputs": [
        {
          "internalType": "uint256",
          "name": "_productId",
          "type": "uint256"
        }
      ],
      "name": "getTransactionsByProductId",
      "outputs": [
        {
          "components": [
            {
              "internalType": "uint256",
              "name": "id",
              "type": "uint256"
            },
            {
              "internalType": "uint256",
              "name": "productId",
              "type": "uint256"
            },
            {
              "internalType": "address",
              "name": "buyer",
              "type": "address"
            },
            {
              "internalType": "uint256",
              "name": "purchaseTime",
              "type": "uint256"
            },
            {
              "internalType": "string",
              "name": "shippingStatus",
              "type": "string"
            }
          ],
          "internalType": "struct TransactionContract.Transaction[]",
          "name": "",
          "type": "tuple[]"
        }
      ],
      "stateMutability": "view",
      "type": "function",
      "constant": true
    }
  ],
  "bytecode": "0x608060405234801561001057600080fd5b50604051620012083803806200120883398181016040528101906100349190610090565b80600260006101000a81548173ffffffffffffffffffffffffffffffffffffffff021916908373ffffffffffffffffffffffffffffffffffffffff16021790555050610102565b60008151905061008a816100eb565b92915050565b6000602082840312156100a257600080fd5b60006100b08482850161007b565b91505092915050565b60006100c4826100cb565b9050919050565b600073ffffffffffffffffffffffffffffffffffffffff82169050919050565b6100f4816100b9565b81146100ff57600080fd5b50565b6110f680620001126000396000f3fe6080604052600436106100555760003560e01c806305ed81ab1461005a57806333ea3dc814610083578063716ae61c146100c05780638642269e146100fd5780639ace38c214610119578063b77bf6001461015a575b600080fd5b34801561006657600080fd5b50610081600480360381019061007c91906109d1565b610185565b005b34801561008f57600080fd5b506100aa60048036038101906100a591906109a8565b6101f7565b6040516100b79190610d6a565b60405180910390f35b3480156100cc57600080fd5b506100e760048036038101906100e291906109a8565b610329565b6040516100f49190610d08565b60405180910390f35b610117600480360381019061011291906109a8565b6105b7565b005b34801561012557600080fd5b50610140600480360381019061013b91906109a8565b61075f565b604051610151959493929190610df1565b60405180910390f35b34801561016657600080fd5b5061016f61083d565b60405161017c9190610d8c565b60405180910390f35b60015482106101c9576040517f08c379a00000000000000000000000000000000000000000000000000000000081526004016101c090610d4a565b60405180910390fd5b8060008084815260200190815260200160002060040190805190602001906101f2929190610843565b505050565b6101ff6108c9565b6000808381526020019081526020016000206040518060a001604052908160008201548152602001600182015481526020016002820160009054906101000a900473ffffffffffffffffffffffffffffffffffffffff1673ffffffffffffffffffffffffffffffffffffffff1673ffffffffffffffffffffffffffffffffffffffff168152602001600382015481526020016004820180546102a090610f90565b80601f01602080910402602001604051908101604052809291908181526020018280546102cc90610f90565b80156103195780601f106102ee57610100808354040283529160200191610319565b820191906000526020600020905b8154815290600101906020018083116102fc57829003601f168201915b5050505050815250509050919050565b60606000805b600154811015610378578360008083815260200190815260200160002060010154141561036557818061036190610fc2565b9250505b808061037090610fc2565b91505061032f565b5060008167ffffffffffffffff8111156103bb577f4e487b7100000000000000000000000000000000000000000000000000000000600052604160045260246000fd5b6040519080825280602002602001820160405280156103f457816020015b6103e16108c9565b8152602001906001900390816103d95790505b5090506000805b6001548110156105ab5785600080838152602001908152602001600020600101541415610598576000808281526020019081526020016000206040518060a001604052908160008201548152602001600182015481526020016002820160009054906101000a900473ffffffffffffffffffffffffffffffffffffffff1673ffffffffffffffffffffffffffffffffffffffff1673ffffffffffffffffffffffffffffffffffffffff168152602001600382015481526020016004820180546104c390610f90565b80601f01602080910402602001604051908101604052809291908181526020018280546104ef90610f90565b801561053c5780601f106105115761010080835404028352916020019161053c565b820191906000526020600020905b81548152906001019060200180831161051f57829003601f168201915b50505050508152505083838151811061057e577f4e487b7100000000000000000000000000000000000000000000000000000000600052603260045260246000fd5b6020026020010181905250818061059490610fc2565b9250505b80806105a390610fc2565b9150506103fb565b50819350505050919050565b600034116105fa576040517f08c379a00000000000000000000000000000000000000000000000000000000081526004016105f190610d2a565b60405180910390fd5b6040518060a0016040528060015481526020018281526020013373ffffffffffffffffffffffffffffffffffffffff1681526020014281526020016040518060400160405280600a81526020017f50726f63657373696e67000000000000000000000000000000000000000000008152508152506000806001548152602001908152602001600020600082015181600001556020820151816001015560408201518160020160006101000a81548173ffffffffffffffffffffffffffffffffffffffff021916908373ffffffffffffffffffffffffffffffffffffffff160217905550606082015181600301556080820151816004019080519060200190610703929190610843565b509050507f8aefb567acdd757f54a877c95a76db12c75dab8ca74eaefbd4fcc8e7c3841bab600154823360405161073c93929190610da7565b60405180910390a16001600081548092919061075790610fc2565b919050555050565b60006020528060005260406000206000915090508060000154908060010154908060020160009054906101000a900473ffffffffffffffffffffffffffffffffffffffff16908060030154908060040180546107ba90610f90565b80601f01602080910402602001604051908101604052809291908181526020018280546107e690610f90565b80156108335780601f1061080857610100808354040283529160200191610833565b820191906000526020600020905b81548152906001019060200180831161081657829003601f168201915b5050505050905085565b60015481565b82805461084f90610f90565b90600052602060002090601f01602090048101928261087157600085556108b8565b82601f1061088a57805160ff19168380011785556108b8565b828001600101855582156108b8579182015b828111156108b757825182559160200191906001019061089c565b5b5090506108c5919061090e565b5090565b6040518060a001604052806000815260200160008152602001600073ffffffffffffffffffffffffffffffffffffffff16815260200160008152602001606081525090565b5b8082111561092757600081600090555060010161090f565b5090565b600061093e61093984610e7c565b610e4b565b90508281526020810184848401111561095657600080fd5b610961848285610f4e565b509392505050565b600082601f83011261097a57600080fd5b813561098a84826020860161092b565b91505092915050565b6000813590506109a2816110a9565b92915050565b6000602082840312156109ba57600080fd5b60006109c884828501610993565b91505092915050565b600080604083850312156109e457600080fd5b60006109f285828601610993565b925050602083013567ffffffffffffffff811115610a0f57600080fd5b610a1b85828601610969565b9150509250929050565b6000610a318383610bfe565b905092915050565b610a4281610f12565b82525050565b610a5181610f12565b82525050565b6000610a6282610ebc565b610a6c8185610edf565b935083602082028501610a7e85610eac565b8060005b85811015610aba5784840389528151610a9b8582610a25565b9450610aa683610ed2565b925060208a01995050600181019050610a82565b50829750879550505050505092915050565b6000610ad782610ec7565b610ae18185610ef0565b9350610af1818560208601610f5d565b610afa81611098565b840191505092915050565b6000610b1082610ec7565b610b1a8185610f01565b9350610b2a818560208601610f5d565b610b3381611098565b840191505092915050565b6000610b4b601f83610f01565b91507f5061796d656e7420726571756972656420746f206275792070726f64756374006000830152602082019050919050565b6000610b8b600a83610f01565b91507f50726f63657373696e67000000000000000000000000000000000000000000006000830152602082019050919050565b6000610bcb601a83610f01565b91507f5472616e73616374696f6e20646f6573206e6f742065786973740000000000006000830152602082019050919050565b600060a083016000830151610c166000860182610cea565b506020830151610c296020860182610cea565b506040830151610c3c6040860182610a39565b506060830151610c4f6060860182610cea565b5060808301518482036080860152610c678282610acc565b9150508091505092915050565b600060a083016000830151610c8c6000860182610cea565b506020830151610c9f6020860182610cea565b506040830151610cb26040860182610a39565b506060830151610cc56060860182610cea565b5060808301518482036080860152610cdd8282610acc565b9150508091505092915050565b610cf381610f44565b82525050565b610d0281610f44565b82525050565b60006020820190508181036000830152610d228184610a57565b905092915050565b60006020820190508181036000830152610d4381610b3e565b9050919050565b60006020820190508181036000830152610d6381610bbe565b9050919050565b60006020820190508181036000830152610d848184610c74565b905092915050565b6000602082019050610da16000830184610cf9565b92915050565b6000608082019050610dbc6000830186610cf9565b610dc96020830185610cf9565b610dd66040830184610a48565b8181036060830152610de781610b7e565b9050949350505050565b600060a082019050610e066000830188610cf9565b610e136020830187610cf9565b610e206040830186610a48565b610e2d6060830185610cf9565b8181036080830152610e3f8184610b05565b90509695505050505050565b6000604051905081810181811067ffffffffffffffff82111715610e7257610e71611069565b5b8060405250919050565b600067ffffffffffffffff821115610e9757610e96611069565b5b601f19601f8301169050602081019050919050565b6000819050602082019050919050565b600081519050919050565b600081519050919050565b6000602082019050919050565b600082825260208201905092915050565b600082825260208201905092915050565b600082825260208201905092915050565b6000610f1d82610f24565b9050919050565b600073ffffffffffffffffffffffffffffffffffffffff82169050919050565b6000819050919050565b82818337600083830152505050565b60005b83811015610f7b578082015181840152602081019050610f60565b83811115610f8a576000848401525b50505050565b60006002820490506001821680610fa857607f821691505b60208210811415610fbc57610fbb61103a565b5b50919050565b6000610fcd82610f44565b91507fffffffffffffffffffffffffffffffffffffffffffffffffffffffffffffffff82141561100057610fff61100b565b5b600182019050919050565b7f4e487b7100000000000000000000000000000000000000000000000000000000600052601160045260246000fd5b7f4e487b7100000000000000000000000000000000000000000000000000000000600052602260045260246000fd5b7f4e487b7100000000000000000000000000000000000000000000000000000000600052604160045260246000fd5b6000601f19601f8301169050919050565b6110b281610f44565b81146110bd57600080fd5b5056fea264697066735822122045bc45bf2f7fc65a7b8059670593e0bbf85e490351cd7ba5d976733a656099d564736f6c63430008000033",
  "immutableReferences": {},
  "source": "// SPDX-License-Identifier: MIT\r\npragma solidity ^0.8.0;\r\n\r\nimport \"./ProductContract.sol\";\r\n\r\ncontract TransactionContract {\r\n    struct Transaction {\r\n        uint256 id;\r\n        uint256 productId;\r\n        address buyer;\r\n        uint256 purchaseTime;\r\n        string shippingStatus;\r\n    }\r\n\r\n    mapping(uint256 => Transaction) public transactions;\r\n    uint256 public transactionCount;\r\n    ProductContract productContract;\r\n\r\n    event ProductPurchased(uint256 transactionId, uint256 productId, address buyer, string shippingStatus);\r\n\r\n    constructor(address _productContractAddress) {\r\n        productContract = ProductContract(_productContractAddress);\r\n    }\r\n\r\n    function buyProduct(uint256 _productId) public payable {\r\n        require(msg.value > 0, \"Payment required to buy product\");\r\n        \r\n        transactions[transactionCount] = Transaction(transactionCount, _productId, msg.sender, block.timestamp, \"Processing\");\r\n        emit ProductPurchased(transactionCount, _productId, msg.sender, \"Processing\");\r\n        \r\n        transactionCount++;\r\n    }\r\n\r\n    function updateShippingStatus(uint256 _transactionId, string memory _status) public {\r\n        require(_transactionId < transactionCount, \"Transaction does not exist\");\r\n        transactions[_transactionId].shippingStatus = _status;\r\n    }\r\n\r\n    function getTransaction(uint256 _id) public view returns (Transaction memory) {\r\n        return transactions[_id];\r\n    }\r\n\r\n    function getTransactionsByProductId(uint256 _productId) public view returns (Transaction[] memory) {\r\n        uint256 count = 0;\r\n        for (uint256 i = 0; i < transactionCount; i++) {\r\n            if (transactions[i].productId == _productId) {\r\n                count++;\r\n            }\r\n        }\r\n\r\n        Transaction[] memory result = new Transaction[](count);\r\n        uint256 index = 0;\r\n        for (uint256 i = 0; i < transactionCount; i++) {\r\n            if (transactions[i].productId == _productId) {\r\n                result[index] = transactions[i];\r\n                index++;\r\n            }\r\n        }\r\n\r\n        return result;\r\n    }\r\n}",
  "sourcePath": "C:\\Users\\NoDuTy\\Desktop\\bluebery_BC\\blueberry-tracker\\contracts\\TransactionContract.sol",
  "compiler": {
    "name": "solc",
    "version": "0.8.0+commit.c7dfd78e.Emscripten.clang"
  },
  "schemaVersion": "3.4.16",
  "updatedAt": "2024-06-24T22:48:47.621Z",
  "networkType": "ethereum",
  "devdoc": {
    "kind": "dev",
    "methods": {},
    "version": 1
  },
  "userdoc": {
    "kind": "user",
    "methods": {},
    "version": 1
  }
}