{
  "contractName": "TransactionContract",
  "abi": [
    {
      "inputs": [
        {
          "internalType": "address",
          "name": "_productContractAddress",
          "type": "address"
        }
      ],
      "stateMutability": "nonpayable",
      "type": "constructor"
    },
    {
      "inputs": [],
      "name": "transactionCount",
      "outputs": [
        {
          "internalType": "uint256",
          "name": "",
          "type": "uint256"
        }
      ],
      "stateMutability": "view",
      "type": "function"
    },
    {
      "inputs": [
        {
          "internalType": "uint256",
          "name": "",
          "type": "uint256"
        }
      ],
      "name": "transactions",
      "outputs": [
        {
          "internalType": "uint256",
          "name": "id",
          "type": "uint256"
        },
        {
          "internalType": "uint256",
          "name": "productId",
          "type": "uint256"
        },
        {
          "internalType": "address",
          "name": "buyer",
          "type": "address"
        },
        {
          "internalType": "uint256",
          "name": "purchaseTime",
          "type": "uint256"
        }
      ],
      "stateMutability": "view",
      "type": "function"
    },
    {
      "inputs": [
        {
          "internalType": "uint256",
          "name": "_productId",
          "type": "uint256"
        }
      ],
      "name": "purchaseProduct",
      "outputs": [],
      "stateMutability": "payable",
      "type": "function"
    },
    {
      "inputs": [
        {
          "internalType": "uint256",
          "name": "_id",
          "type": "uint256"
        }
      ],
      "name": "getTransaction",
      "outputs": [
        {
          "components": [
            {
              "internalType": "uint256",
              "name": "id",
              "type": "uint256"
            },
            {
              "internalType": "uint256",
              "name": "productId",
              "type": "uint256"
            },
            {
              "internalType": "address",
              "name": "buyer",
              "type": "address"
            },
            {
              "internalType": "uint256",
              "name": "purchaseTime",
              "type": "uint256"
            }
          ],
          "internalType": "struct TransactionContract.Transaction",
          "name": "",
          "type": "tuple"
        }
      ],
      "stateMutability": "view",
      "type": "function"
    }
  ],
  "bytecode": "0x60806040526000805534801561001457600080fd5b50604051610aad380380610aad83398181016040528101906100369190610092565b80600260006101000a81548173ffffffffffffffffffffffffffffffffffffffff021916908373ffffffffffffffffffffffffffffffffffffffff16021790555050610104565b60008151905061008c816100ed565b92915050565b6000602082840312156100a457600080fd5b60006100b28482850161007d565b91505092915050565b60006100c6826100cd565b9050919050565b600073ffffffffffffffffffffffffffffffffffffffff82169050919050565b6100f6816100bb565b811461010157600080fd5b50565b61099a806101136000396000f3fe60806040526004361061003f5760003560e01c806333ea3dc81461004457806338e76a03146100815780639ace38c21461009d578063b77bf600146100dd575b600080fd5b34801561005057600080fd5b5061006b60048036038101906100669190610619565b610108565b6040516100789190610733565b60405180910390f35b61009b60048036038101906100969190610619565b6101a9565b005b3480156100a957600080fd5b506100c460048036038101906100bf9190610619565b610375565b6040516100d49493929190610769565b60405180910390f35b3480156100e957600080fd5b506100f26103c5565b6040516100ff919061074e565b60405180910390f35b6101106103cb565b6001600083815260200190815260200160002060405180608001604052908160008201548152602001600182015481526020016002820160009054906101000a900473ffffffffffffffffffffffffffffffffffffffff1673ffffffffffffffffffffffffffffffffffffffff1673ffffffffffffffffffffffffffffffffffffffff1681526020016003820154815250509050919050565b6000600260009054906101000a900473ffffffffffffffffffffffffffffffffffffffff1673ffffffffffffffffffffffffffffffffffffffff1663b9db15b4836040518263ffffffff1660e01b8152600401610206919061074e565b60006040518083038186803b15801561021e57600080fd5b505afa158015610232573d6000803e3d6000fd5b505050506040513d6000823e3d601f19601f8201168201806040525081019061025b91906105d8565b90506000816000015114156102a5576040517f08c379a000000000000000000000000000000000000000000000000000000000815260040161029c90610713565b60405180910390fd5b6000808154809291906102b79061088f565b9190505550604051806080016040528060005481526020018381526020013373ffffffffffffffffffffffffffffffffffffffff168152602001428152506001600080548152602001908152602001600020600082015181600001556020820151816001015560408201518160020160006101000a81548173ffffffffffffffffffffffffffffffffffffffff021916908373ffffffffffffffffffffffffffffffffffffffff160217905550606082015181600301559050505050565b60016020528060005260406000206000915090508060000154908060010154908060020160009054906101000a900473ffffffffffffffffffffffffffffffffffffffff16908060030154905084565b60005481565b60405180608001604052806000815260200160008152602001600073ffffffffffffffffffffffffffffffffffffffff168152602001600081525090565b600061041c610417846107df565b6107ae565b90508281526020810184848401111561043457600080fd5b61043f84828561085c565b509392505050565b60008151905061045681610936565b92915050565b600082601f83011261046d57600080fd5b815161047d848260208601610409565b91505092915050565b600060e0828403121561049857600080fd5b6104a260e06107ae565b905060006104b2848285016105c3565b600083015250602082015167ffffffffffffffff8111156104d257600080fd5b6104de8482850161045c565b602083015250604082015167ffffffffffffffff8111156104fe57600080fd5b61050a8482850161045c565b604083015250606082015167ffffffffffffffff81111561052a57600080fd5b6105368482850161045c565b606083015250608082015167ffffffffffffffff81111561055657600080fd5b6105628482850161045c565b60808301525060a082015167ffffffffffffffff81111561058257600080fd5b61058e8482850161045c565b60a08301525060c06105a284828501610447565b60c08301525092915050565b6000813590506105bd8161094d565b92915050565b6000815190506105d28161094d565b92915050565b6000602082840312156105ea57600080fd5b600082015167ffffffffffffffff81111561060457600080fd5b61061084828501610486565b91505092915050565b60006020828403121561062b57600080fd5b6000610639848285016105ae565b91505092915050565b61064b81610820565b82525050565b61065a81610820565b82525050565b600061066d60168361080f565b91507f50726f6475637420646f6573206e6f74206578697374000000000000000000006000830152602082019050919050565b6080820160008201516106b660008501826106f5565b5060208201516106c960208501826106f5565b5060408201516106dc6040850182610642565b5060608201516106ef60608501826106f5565b50505050565b6106fe81610852565b82525050565b61070d81610852565b82525050565b6000602082019050818103600083015261072c81610660565b9050919050565b600060808201905061074860008301846106a0565b92915050565b60006020820190506107636000830184610704565b92915050565b600060808201905061077e6000830187610704565b61078b6020830186610704565b6107986040830185610651565b6107a56060830184610704565b95945050505050565b6000604051905081810181811067ffffffffffffffff821117156107d5576107d4610907565b5b8060405250919050565b600067ffffffffffffffff8211156107fa576107f9610907565b5b601f19601f8301169050602081019050919050565b600082825260208201905092915050565b600061082b82610832565b9050919050565b600073ffffffffffffffffffffffffffffffffffffffff82169050919050565b6000819050919050565b60005b8381101561087a57808201518184015260208101905061085f565b83811115610889576000848401525b50505050565b600061089a82610852565b91507fffffffffffffffffffffffffffffffffffffffffffffffffffffffffffffffff8214156108cd576108cc6108d8565b5b600182019050919050565b7f4e487b7100000000000000000000000000000000000000000000000000000000600052601160045260246000fd5b7f4e487b7100000000000000000000000000000000000000000000000000000000600052604160045260246000fd5b61093f81610820565b811461094a57600080fd5b50565b61095681610852565b811461096157600080fd5b5056fea26469706673582212204a4ac905b036551bf60907b5a18272a47b506e98424520baf2bde7ed3f4d4bbf64736f6c63430008000033",
  "immutableReferences": {},
  "source": "// contracts/TransactionContract.sol\r\n// SPDX-License-Identifier: MIT\r\npragma solidity ^0.8.0;\r\n\r\nimport \"./ProductContract.sol\";\r\n\r\ncontract TransactionContract {\r\n    struct Transaction {\r\n        uint id;\r\n        uint productId;\r\n        address buyer;\r\n        uint purchaseTime;\r\n    }\r\n\r\n    uint public transactionCount = 0;\r\n    mapping(uint => Transaction) public transactions;\r\n\r\n    ProductContract productContract;\r\n\r\n    constructor(address _productContractAddress) {\r\n        productContract = ProductContract(_productContractAddress);\r\n    }\r\n\r\n    function purchaseProduct(uint _productId) public payable {\r\n        ProductContract.Product memory product = productContract.getProduct(_productId);\r\n        require(product.id != 0, \"Product does not exist\");\r\n\r\n        transactionCount++;\r\n        transactions[transactionCount] = Transaction(\r\n            transactionCount,\r\n            _productId,\r\n            msg.sender,\r\n            block.timestamp\r\n        );\r\n    }\r\n\r\n    function getTransaction(uint _id) public view returns (Transaction memory) {\r\n        return transactions[_id];\r\n    }\r\n}\r\n",
  "sourcePath": "C:\\Users\\NoDuTy\\Desktop\\bluebery_BC\\blueberry-tracker\\contracts\\TransactionContract.sol",
  "compiler": {
    "name": "solc",
    "version": "0.8.0+commit.c7dfd78e.Emscripten.clang"
  },
  "schemaVersion": "3.4.16",
  "updatedAt": "2024-06-08T12:36:08.785Z",
  "devdoc": {
    "kind": "dev",
    "methods": {},
    "version": 1
  },
  "userdoc": {
    "kind": "user",
    "methods": {},
    "version": 1
  }
}